S0130000546573745F4C43445F4F4B2E7372656346
S113000071C0000086C0000084C0000082C00000EF
S113001080C000007EC000007CC000007AC00000E8
S113002078C0000076C0000074C0000072C00000F8
S113003070C000006EC000006CC000006AC0000008
S113004068C0000066C0000064C0000062C0000018
S113005060C000005EC000005CC000005AC0000028
S113006058C0000056C0000054C0000052C0000038
S113007050C000004EC000004CC000004AC0000048
S113008048C0000046C0000044C0000042C0000058
S113009040C000003EC000003CC000003AC0000068
S11300A038C0000036C0000034C0000032C0000078
S11300B030C000002EC000002CC000002AC0000088
S11300C028C0000026C0000024C0000022C0000098
S11300D020C000001EC000001CC000001AC00000A8
S11300E018C0000011241FBECFEFD1E2DEBFCDBF88
S11300F000E00CBF12E0A0E0B2E0E0EAF2E000E0D1
S11301000BBF02C007900D92AC30B107D9F785D070
S1130110C5C076CF129A00C012980895CF93C82F05
S1130120662311F0109A01C010980B9A0C9A0D9A3C
S11301300E9A1698159814981398CC230CF4169AC2
S1130140C6FD159AC5FD149AC4FD139AE3DF1698EB
S1130150159814981398C3FD169AC2FD159AC1FDFB
S1130160149AC0FD139AD6DF139A149A159A169A04
S1130170CF910895E0EAFFE03197F1F760E0CECF48
S1130180089581E0F7CF0895E0EAFFE03197F1F7B1
S11301908A3019F480ECEECF089561E0BFCF089562
S11301A0CF93DF93EC012196FC018081882321F019
S11301B0EBDF89918111FCCFDF91CF910895CF932B
S11301C0C82F089A0A9A0B9A0C9A0D9A0E9AE0E094
S11301D0FAEF3197F1F7149A139A9CDFE0E0FEE40A
S11301E03197F1F797DFE0E0F1E03197F1F792DF33
S11301F0E0E0F1E03197F1F713988CDFE0E0F1E013
S11302003197F1F788E2B6DF88E0B4DFBADF86E041
S1130210B1DF8C2FAFDFCF910895CF93DF93CDB7AC
S1130220DEB760970FB6F894DEBF0FBECDBF8CE08B
S1130230C6DFA7DF8CE0E0E0F2E0DE01119601907A
S11302400D928A95E1F780E29FE4ABE4B0E08D87FC
S11302509E87AF87B88B2FEF83ED90E321508040CA
S11302609040E1F700C00000CE01019699DF2FEF26
S113027083ED90E3215080409040E1F700C00000FE
S1130280CE010D968DDF2FEF83ED90E3215080405A
S11302909040E1F700C0000074DFDDCFF894FFCF99
S10F02A054657374696E67204C4344007D
S9030000FC
