:1000000071C000008EC000008CC000008AC00000DB
:1000100088C0000086C0000084C0000082C00000CC
:1000200080C000007EC000007CC000007AC00000DC
:1000300078C0000076C0000074C0000072C00000EC
:1000400070C000006EC000006CC000006AC00000FC
:1000500068C0000066C0000064C0000062C000000C
:1000600060C000005EC000005CC000005AC000001C
:1000700058C0000056C0000054C0000052C000002C
:1000800050C000004EC000004CC000004AC000003C
:1000900048C0000046C0000044C0000042C000004C
:1000A00040C000003EC000003CC000003AC000005C
:1000B00038C0000036C0000034C0000032C000006C
:1000C00030C000002EC000002CC000002AC000007C
:1000D00028C0000026C0000024C0000022C000008C
:1000E00020C0000011241FBECFEFD1E2DEBFCDBF84
:1000F00000E00CBF12E0A0E0B2E0E6ECF2E000E0CD
:100100000BBF02C007900D92A231B107D9F722E0D0
:10011000A2E1B2E001C01D92A531B207E1F790D093
:10012000D0C06ECF129A00C012980895CF93C82FF6
:10013000662311F0109A01C010980B9A0C9A0D9A30
:100140000E9A1698159814981398CC230CF4169AB6
:10015000C6FD159AC5FD149AC4FD139AE3DF1698DF
:10016000159814981398C3FD169AC2FD159AC1FDEF
:10017000149AC0FD139AD6DF139A149A159A169AF8
:10018000CF910895E0EAFFE03197F1F760E0CECF3C
:100190000895611103C08058F5CF08958054F2CFBF
:1001A000089581E0EFCF089582E0ECCF0895E0EA72
:1001B000FFE03197F1F78A3019F480ECE3CF08952E
:1001C00061E0B4CF0895CF93DF93EC012196FC0159
:1001D0008081882321F0EBDF89918111FCCFDF91B1
:1001E000CF910895CF93C82F089A0A9A0B9A0C9A28
:1001F0000D9A0E9AE0E0FAEF3197F1F7149A139AFC
:1002000091DFE0E0FEE43197F1F78CDFE0E0F1E030
:100210003197F1F787DFE0E0F1E03197F1F71398DC
:1002200081DFE0E0F1E03197F1F788E2ABDF88E0D1
:10023000A9DFB7DF86E0A6DF8C2FA4DFCF9108957A
:10024000899A6D9A8CE0CEDFC1E0D0E28FB18695BD
:1002500081708C2790911302891779F09091120286
:100260009F5F90931202943050F08093130281119B
:10027000C09314021092120202C0109212028091D6
:1002800014028823B9F0109214028EB18D278EB912
:1002900088DF8ADF60E085E07CDF80E092E093DF4A
:1002A000659908C07EDF80DF60E085E072DF88E06E
:1002B00092E089DF8FE39CE90197F1F700C000002D
:0602C000C5CFF894FFCF4A
:1002C6004C4544204F6E21004C4544204F66662124
:0202D600000026
:00000001FF
