:100000000C9434000C943E000C943E000C943E0082
:100010000C943E000C943E000C943E000C943E0068
:100020000C943E000C943E000C943E000C943E0058
:100030000C943E000C943E000C943E000C943E0048
:100040000C943E000C943E000C943E000C943E0038
:100050000C943E000C943E000C943E000C943E0028
:100060000C943E000C943E0011241FBECFEFD8E04C
:10007000DEBFCDBF0E9446000C9450000C940000DF
:100080008BE085BD16BC89EF87BD0895579A0E9405
:100090004000A99B03C08BB180588BB9A99AF9CFB6
:0400A000F894FFCF02
:00000001FF
