S01D000043414E5F4275735F4D61737465725F7646696E616C2E7372656322
S113000071C000008EC000008CC000008AC00000D7
S113001088C0000086C0000084C0000082C00000C8
S113002080C000007EC000007CC000007AC00000D8
S113003078C0000076C0000074C0000072C00000E8
S113004070C000006EC000006CC000006AC00000F8
S113005068C0000066C0000064C000008AC00000E0
S113006060C00000E8C400000AC500005AC00000D7
S113007058C0000057C0000054C0000052C0000027
S113008050C000004EC000004CC000004AC0000038
S113009048C0000046C0000044C0000042C0000048
S11300A040C000003EC000003CC000003AC0000058
S11300B038C0000036C0000034C0000032C0000068
S11300C030C000002EC000002CC000002AC0000078
S11300D028C0000026C0000024C0000022C0000088
S11300E020C0000011241FBECFEFD1E2DEBFCDBF80
S11300F000E00CBF13E0A0E0B2E0ECEEFDE000E0B5
S11301000BBF02C007900D92A633B107D9F724E0C4
S1130110A6E3B3E001C01D92A034B207E1F70BD10E
S113012063C66ECF1F920F920FB60F9211240BB6B7
S11301300F922F938F939F93EF93FF938091780067
S11301402091790090E0922B9093390380933803A7
S1130150EAE7F0E0808180648083FF91EF919F91D2
S11301608F912F910F900BBE0F900FBE0F901F9089
S113017018951F920F920FB60F9211248F938091AE
S11301803E048F5F80933E048F910F900FBE0F90BB
S11301901F90189584B1876084B90895CF93DF9335
S11301A0CDB7DEB72B970FB6F894DEBF0FBECDBF29
S11301B07FD381110CC0F2D2F4D280E092E000D35C
S11301C061E080E0E3D28FE092E0FAD20EC0E6D2A2
S11301D0E8D260E085E0DAD287E092E0F1D261E033
S11301E082E0D4D283E192E0EBD22FEF87EA91E66A
S11301F0215080409040E1F700C0000083E291E08C
S11302009A8389838B81807E84608B838FEF8C8338
S11302108D8340E460EE8FE031D3CE01019688D324
S1130220882361F0BBD2BDD280E292E0C9D261E002
S113023084E0ACD280E392E0C3D20AC0AFD28BE3B5
S113024092E0BED261E080E0A1D287E492E0B8D22D
S11302502FEF83ED90E3215080409040E1F700C000
S1130260000062D3882379F099D29BD289E592E089
S1130270A7D22FEF83ED90E3215080409040E1F727
S113028000C000000BC08AD28CD28BE392E098D2DB
S113029060E084E07BD28AE692E092D22B960FB69D
S11302A0F894DEBF0FBECDBFDF91CF91089540E03B
S11302B060EE8FE0E3D272D274D284E792E080D20F
S11302C02FEF83ED90E3215080409040E1F700C090
S11302D00000089585B5856085BD16BCEEE6F0E0A6
S11302E080818160808310923E040895E0E8F0E00C
S11302F0808182688083E1E8F0E080818B61808383
S113030087E893E190938700809386008AEF90E0DA
S113031090938900809388000895ECE7F0E0808151
S113032080648083EAE7F0E080818F688083808145
S1130330806480830895CF93DF93CDB7DEB7A19710
S11303400FB6F894DEBF0FBECDBF81EA91E09A8369
S113035089838B81807E84608B831C821D8289ECDF
S113036090E09D878C878E85807E84608E871F8633
S1130370188A88E592E0988F8F8B898D807E8460BF
S1130380898F1A8E1B8E87E690E040D378948CE098
S113039026D200DF03DF8BDF9DDFA8DFBEDF6C9A90
S11303A0E1E0F1E080818F7E808326982798808128
S11303B08F7B808324982C9A259AF0D100E011E059
S11303C0CC24CA940F2EF8E8EF2EF12CF02D68946B
S11303D0DD24D4F80F2EF6E0BF2EF02D6894992476
S11303E091F86894AA24A2F8F801808184FF44C09B
S11303F08091380390913903CA8E96958795969586
S113040087958B8FCE01479693D260913803709174
S1130410390380E090E0F7D32DE032E348EC5EE36B
S113042080D420E030E04AE753E458D3BBD3F7014B
S113043071836083749A60E080E0A8D185E892E0DB
S1130440BFD180913803909139038115924038F4DB
S113045061E083E09BD186E992E0B2D10DC0809146
S11304603803909139038430924030F061E083E0A6
S11304708DD182EA92E0A4D11E9B68C0F8018081EC
S113048086FF32C080913E04843208F4FCC086B5F5
S1130490833C08F4F8C08EB18D258EB9649911C0DF
S11304A0BC8281E08D83CE01019642D27AD18DEA5D
S11304B092E086D161E080E069D18FEB92E080D157
S11304C00FC0BC821D82CE01019632D26AD180ED6A
S11304D092E076D161E080E059D18FEB92E070D167
S11304E016BC10923E04CFC080913E04843208F4BE
S11304F0CAC086B5833C08F4C6C08EB18D258EB9BA
S1130500649911C0AC8281E08D83CE01019610D232
S113051048D181EE92E054D161E080E037D18FEB95
S113052092E04ED10FC0AC821D82CE01019600D262
S113053038D182EF92E044D161E080E027D18FEBA3
S113054092E03ED116BC10923E049DC01F9B68C031
S1130550F801808186FF32C080913E04843208F421
S113056092C086B5833C08F48EC08EB18D258EB9B9
S1130570649911C0BC8281E08D83CE010196D8D1EB
S113058010D18DEA92E01CD161E080E0FFD08FEBC6
S113059092E016D10FC0BC821D82CE010196C8D153
S11305A000D180ED92E00CD161E080E0EFD08FEBE0
S11305B092E006D116BC10923E0465C080913E04C0
S11305C0843208F460C086B5833C08F45CC08EB104
S11305D08D258EB9649911C09C8281E08D83CE01F2
S11305E00196A6D1DED083E093E0EAD061E080E01A
S11305F0CDD08FEB92E0E4D00FC09C821D82CE015F
S1130600019696D1CED084E193E0DAD061E080E027
S1130610BDD08FEB92E0D4D016BC10923E0433C010
S1130620F801808186FF2FC080913E04843258F106
S113063086B5833C40F18EB18D258EB9649911C085
S1130640BC8281E08D83CE01019672D1AAD08DEA5D
S113065092E0B6D061E080E099D08FEB92E0B0D028
S11306600FC0BC821D82CE01019662D19AD080ED6A
S113067092E0A6D061E080E089D08FEB92E0A0D038
S113068016BC10923E0483B18295817091E0892753
S113069090913703891789F0909136039F5F909367
S11306A03603943060F080933703882319F081E097
S11306B080933F041092360302C010923603809157
S11306C03F04882329F110923F048EB18D258EB901
S11306D01F86188ACE010C962BD163D08FEB92E043
S11306E06FD061E080E052D08FEB92E069D06499E2
S11306F00FC0CF86188ACE010C961AD152D085E24B
S113070093E05ED061E080E041D08FEB92E058D07E
S11307108FE39CE90197F1F700C0000065CE129ABF
S113072000C012980895CF93C82F662311F0109A31
S113073001C010980B9A0C9A0D9A0E9A1698159857
S113074014981398CC230CF4169AC6FD159AC5FD7B
S1130750149AC4FD139AE3DF169815981498139805
S1130760C3FD169AC2FD159AC1FD149AC0FD139AD1
S1130770D6DF139A149A159A169ACF910895E0EA3F
S1130780FFE03197F1F760E0CECF0895611103C027
S11307908058F5CF08958054F2CF089581E0EFCFCB
S11307A0089582E0ECCF0895E0EAFFE03197F1F795
S11307B08A3019F480ECE3CF089561E0B4CF089552
S11307C0CF93DF93EC012196FC018081882321F0F3
S11307D0EBDF89918111FCCFDF91CF910895CF9305
S11307E0C82F089A0A9A0B9A0C9A0D9A0E9AE0E06E
S11307F0FAEF3197F1F7149A139A91DFE0E0FEE4EF
S11308003197F1F78CDFE0E0F1E03197F1F787DF22
S1130810E0E0F1E03197F1F7139881DFE0E0F1E0F7
S11308203197F1F788E2ABDF88E0A9DFB7DF86E034
S1130830A6DF8C2FA4DFCF9108958EBD0DB407FEE3
S1130840FDCF8EB50895CF93DF93D82FC62F289868
S113085082E0F3DF8D2FF1DF8C2FEFDF289ADF9119
S1130860CF910895CF93C82F289883E0E6DF8C2F8B
S1130870E4DF8FEFE2DF289ACF9108951F93CF939F
S1130880DF93182FD62FC42F289885E0D6DF812F29
S1130890D4DF8D2FD2DF8C2FD0DF289ADF91CF9138
S11308A01F9108952898C9DF8FEFC7DF289A08950C
S11308B0289A209A29982A982B98219A229A239840
S11308C05098589A81E58CBD1DBC289880ECB5DF02
S11308D0289A8FE39CE90197F1F700C0000028985B
S11308E082E0ABDF88E2A9DF82E0A7DF80E9A5DF51
S11308F087E0A3DF83E0A1DF289A8AE2B3DF8730B1
S113090089F460E08CE09FDF60E08DE09CDF60E6CE
S113091080E699DF60E680E796DF60E08FE093DFB2
S113092081E0089580E0089589B1809581700895EB
S1130930DF92EF92FF920F931F93CF93DF931F9257
S1130940CDB7DEB78C0180EAADDF8983898182FF70
S11309500AC0898184FF09C0898186FD4DC06894DD
S1130960DD24D2F805C0D12C03C06894DD24D1F86D
S113097028988D2D806461DFF80120813181C901BF
S113098096958795969587959695879556DFF80160
S113099080818295880F807E50DF80E04EDF80E08A
S11309A04CDFF8018281E82EE694FE2DFF70EF2ED5
S11309B080FF04C08F2F806440DF0EC08F2F3DDF87
S11309C0EE2051F00D5F1F4FF12CF80181918F0142
S11309D034DFF394FE14C8F3289AF5E0FA95F1F79E
S11309E000002898D11002C0DD24D3948D2D806896
S11309F024DF289A8D2D01C080E00F90DF91CF91E4
S1130A001F910F91FF90EF90DF9008959093C50090
S1130A108093C40088E98093C1008EE08093C20073
S1130A201092C0001092BC031092BD0310923A03BE
S1130A3010923B0308951F920F920FB60F92112448
S1130A400BB60F928F939F93EF93FF938091C60001
S1130A50E091BD03EF5FEF77E093BD039091BC039A
S1130A60F0E0E254FC4F8083FF91EF919F918F91CE
S1130A700F900BBE0F900FBE0F901F9018951F92F2
S1130A800F920FB60F9211240BB60F928F939F9370
S1130A90EF93FF9390913B0380913A03981769F089
S1130AA0E0913A03EF5FEF77E0933A03F0E0E45C20
S1130AB0FC4F80818093C60005C0E1ECF0E08081AA
S1130AC08F7D8083FF91EF919F918F910F900BBE4B
S1130AD00F900FBE0F901F9018955058BB27AA2750
S1130AE00ED0E5C0D6D030F0DBD020F031F49F3FFB
S1130AF011F41EF4CBC00EF4E095E7FBC1C0E92F5E
S1130B00E7D080F3BA17620773078407950718F0D4
S1130B1071F49EF5FFC00EF4E0950B2EBA2FA02DB4
S1130B200B01B90190010C01CA01A0011124FF2796
S1130B30591B99F0593F50F4503E68F11A16F04091
S1130B40A22F232F342F4427585FF3CF4695379590
S1130B502795A795F0405395C9F77EF41F16BA0B55
S1130B60620B730B840BBAF09150A1F0FF0FBB1F03
S1130B70661F771F881FC2F70EC0BA0F621F731F4C
S1130B80841F48F4879577956795B795F7959E3FA9
S1130B9008F0B3CF9395880F08F09927EE0F979537
S1130BA08795089504D06894B111B5C0089598D07C
S1130BB088F09F5790F0B92F9927B751A0F0D1F042
S1130BC0660F771F881F991F1AF0BA95C9F712C0CC
S1130BD0B13081F09FD0B1E008959CC0672F782F89
S1130BE08827B85F39F0B93FCCF386957795679538
S1130BF0B395D9F73EF490958095709561957F4FA4
S1130C008F4F9F4F0895E89409C097FB3EF4909549
S1130C108095709561957F4F8F4F9F4F9923A9F0D1
S1130C20F92F96E9BB279395F69587957795679560
S1130C30B795F111F8CFFAF4BB0F11F460FF1BC0A4
S1130C406F5F7F4F8F4F9F4F16C0882311F096E937
S1130C5011C0772321F09EE8872F762F05C06623E5
S1130C6071F096E8862F70E060E02AF09A95660F9E
S1130C70771F881FDAF7880F9695879597F9089557
S1130C8097F99F6780E870E060E008959FEF80EC3B
S1130C90089500240A9416161706180609060895DE
S1130CA000240A9412161306140605060895092E44
S1130CB00394000C11F4882352F0BB0F40F4BF2BB3
S1130CC011F460FF04C06F5F7F4F8F4F9F4F0895F3
S1130CD057FD9058440F551F59F05F3F71F04795E9
S1130CE0880F97FB991F61F09F3F79F087950895CE
S1130CF0121613061406551FF2CF4695F1DF08C0ED
S1130D00161617061806991FF1CF86957105610509
S1130D1008940895E894BB2766277727CB0197F9B1
S1130D2008950BD0C4CFB5DF28F0BADF18F09523AF
S1130D3009F0A6CFABCF1124EECFCADFA0F3959F65
S1130D40D1F3950F50E0551F629FF001729FBB27AE
S1130D50F00DB11D639FAA27F00DB11DAA1F649F5A
S1130D606627B00DA11D661F829F2227B00DA11D0D
S1130D70621F739FB00DA11D621F839FA00D611D93
S1130D80221F749F3327A00D611D231F849F600DB4
S1130D90211D822F762F6A2F11249F5750408AF0ED
S1130DA0E1F088234AF0EE0FFF1FBB1F661F771F79
S1130DB0881F91505040A9F79E3F510570F060CFB5
S1130DC0AACF5F3FECF3983EDCF386957795679561
S1130DD0B795F795E7959F5FC1F7FE2B880F911D97
S10F0DE09695879597F90895F894FFCF35
S1130DEC4572726F723A2043414E20427573006E05
S1130DFC6F7420696E697469616C697A6564210029
S1130E0C4D6573736167652077726974656E6E00E6
S1130E1C746F2062756666657221004D657373612B
S1130E2C6765206E6F740077726974656E6E2074DA
S1130E3C6F20627566666572004D657373616765D4
S1130E4C20726563656976656400726563656976AD
S1130E5C6564210043414E4275734E6F726D616C33
S1130E6C4D6F64650020486561646C696768742023
S1130E7C4F6E212020005269676874205475726E7D
S1130E8C21004C656674205475726E210048617A99
S1130E9C617264205369676E616C204F6E2100206F
S1130EAC2020202020202020202020202020200052
S1130EBC48617A6172645369676E616C204F66662F
S1130ECC004C656674205369676E616C204F6E210B
S1130EDC20004C656674205369676E616C204F6604
S1130EEC6621005269676874205369676E616C20CF
S1130EFC4F6E21005269676874205369676E616C88
S1130F0C204F666600204272616B652050726573D7
S1090F1C7365642120004E
S9030000FC
