S01D00004C45445F496E746572727570745F546573745F4F4B2E737265630E
S113000033C000004CC000004AC0000048C00000DB
S113001046C000002AC2000042C0000040C00000E8
S11300203EC000003CC000003AC0000038C00000E0
S113003036C0000034C0000032C0000030C00000F0
S11300402EC000002CC000002AC0000028C0000000
S113005026C0000024C0000022C0000020C0000010
S11300601EC000001CC0000011241FBECFEFD8E04A
S1130070DEBFCDBF11E0A0E0B1E0E6EFF5E002C0E5
S113008005900D92AE30B107D9F721E0AEE0B1E0B2
S113009001C01D92A931B207E1F706D2AAC2B0CFBE
S11300A01092B90088E48093B800089594EA90937C
S11300B0BC00ECEBF0E090819923ECF79091B9004F
S11300C0987F983011F09031A1F48093BB0084E8BC
S11300D08093BC00ECEBF0E080818823ECF79091F6
S11300E0B900987F983139F081E0903429F480E0A8
S11300F0089581E0089580E0089584E98093BC0028
S1130100ECEBF0E0808184FDFDCF08958093BB008B
S113011084E88093BC00ECEBF0E080818823ECF76A
S11301209091B900987F81E0983209F480E00895B5
S1130130CF93882331F080910E01816080930E016A
S113014005C080910E018E7F80930E0180910E0177
S1130150826080930E0160910E0180E0FDD162E027
S113016080E041D200C064E080E0DFD1C82F62E0CB
S113017080E03CD200C062E080E035D200C064E0A0
S113018080E0D3D1C295C07F8F70C82B62E080E03D
S11301902DD28C2FCF91089580E0CADF8823E4F319
S11301A088E090E00197F1F780E0C2CF089562E023
S11301B080E019D200C062E080E018C20895CF93B5
S11301C0C82F662331F080910E01816080930E0167
S11301D005C080910E018E7F80930E0180910E01E7
S11301E08D7F80930E0160910E0180E0B5D18091E6
S11301F00E018F7780930E0180910E018F7B809387
S11302000E0180910E018F7D80930E0180910E016D
S11302108F7E80930E01CC232CF480910E01806894
S113022080930E01C6FF05C080910E018064809307
S11302300E01C5FF05C080910E01806280930E01FE
S1130240C4FF05C080910E01806180930E0160910E
S11302500E0180E081D1ABDF80910E018F77809316
S11302600E0180910E018F7B80930E0180910E010F
S11302708F7D80930E0180910E018F7E80930E01FD
S1130280C3FF05C080910E01806880930E01C2FFF8
S113029005C080910E01806480930E01C1FF05C0EA
S11302A080910E01806280930E01C0FF05C0809191
S11302B00E01806180930E0160910E0180E04CD1AB
S11302C076DF80910E01806180930E0180910E0192
S11302D0806280930E0180910E01806480930E01F0
S11302E080910E01806880930E0160910E0180E080
S11302F033D1CF910895CF93C82F4EDF60E08C2F78
S11303005EDFCF910895611103C08058F4CF089542
S1130310613019F48054EFCF0895623019F48C568B
S1130320EACF08958C52E7CF089581E0E4CF089591
S1130330882331F080910E01877F80930E0105C0E0
S113034080910E01886080930E0160910E0180E01F
S113035003C1089582E0CFCF0895CF93C82F1CDF47
S1130360CA30A1F4843150F090EC980F943140F0ED
S11303709CEE980F9C3230F484E505C080E403C001
S113038084E101C080E08058B6DF1BC0843121F4D1
S113039060E080EC14DF11C0843521F460E084E96E
S11303A00EDF0BC0883221F460E084ED08DF05C065
S11303B0883619F460E080E802DFEEDE61E08C2F1D
S11303C0FEDECF910895CF93DF93EC012196FC01DB
S11303D08081882321F0C1DF89918111FCCFDF91D5
S11303E0CF910895CF93C82F90D010920E016091B1
S11303F00E0180E0B1D0E0E0FAEF3197F1F780919F
S11304000E01806280930E0180910E0180618093C1
S11304100E0160910E0180E09FD0C9DEE0E0FEE4B1
S11304203197F1F7C4DEE0E0F1E03197F1F7BFDE98
S1130430E0E0F1E03197F1F780910E018F7E809337
S11304400E0160910E0180E087D0B1DEE0E0F1E0C2
S11304503197F1F788E24FDF88E04DDF66DF86E011
S11304604ADF8C2F48DFCF9108951F920F920FB669
S11304700F9211248F939F934F9B08C05C9A81E045
S113048090E09093100180930F0107C04F9905C02D
S11304905C981092100110920F019F918F910F9010
S11304A00FBE0F901F9018958CE09CDF80E040DF1A
S11304B0549A57985F9A84E08093680080E8809308
S11304C06D00789432DF80910F01909110010197B3
S11304D071F440DF60E086E016DF80E091E073DFD6
S11304E060E08AE010DF84E091E06DDFECCF32DF82
S11304F060E086E008DF80E091E065DF60E08AE0AC
S113050002DF89E091E05FDFDECFCADD85E38A9513
S1130510F1F7000080E090E0FC01EF5EFE4F1082F6
S1130520019688309105C1F70895883088F46830C1
S113053088F4E82FF0E0EF5EFE4F8081992787FD75
S1130540909502C0959587956A95E2F78170089514
S11305508FEF08958FEF0895CF93C62F883068F4F6
S1130560E82FF0E0EF5EFE4F6083815C880F9EDD34
S11305708C2FCCDDC2DD80E001C08FEFCF910895D8
S1130580CF93883058F5683058F5282F30E0F901BA
S1130590EF5EFE4FC081442351F0E1E0F0E0AF0193
S11305A002C0440F551F6A95E2F7C42B0BC041E00B
S11305B050E0FA0102C0EE0FFF1F6A95E2F7BF0197
S11305C06095C623F901EF5EFE4FC083815C880FFE
S11305D06DDD8C2F9BDD91DD80E003C08FEF01C0CA
S11305E08FEFCF91089541E0CBCF089540E0C8CF7D
S10905F00895F894FFCF0A
S11105F64C4544004F6E2120004F66662100E4
S9030000FC
