S01C000043414E5F4275735F4D61737465725F46494E414C2E7372656319
S113000071C000008EC000008CC000008AC00000D7
S113001088C0000086C0000084C0000082C00000C8
S113002080C000007EC000007CC000007AC00000D8
S113003078C0000076C0000074C0000072C00000E8
S113004070C000006EC000006CC000006AC00000F8
S113005068C0000066C0000064C0000063C0000007
S113006060C000005EC000005CC000005AC0000018
S113007058C0000068C0000054C0000052C0000016
S113008050C000004EC000004CC000004AC0000038
S113009048C0000046C0000044C0000042C0000048
S11300A040C000003EC000003CC000003AC0000058
S11300B038C0000036C0000034C0000032C0000068
S11300C030C000002EC000002CC000002AC0000078
S11300D028C0000026C0000024C0000022C0000088
S11300E020C0000011241FBECFEFD1E2DEBFCDBF80
S11300F000E00CBF13E0A0E0B2E0ECE7FBE000E0BE
S11301000BBF02C007900D92AA33B107D9F723E0C1
S1130110AAE3B3E001C01D92AD33B207E1F712D1F7
S11301202BC56ECF1F920F920FB60F9211248F938F
S113013080913C038F5F80933C038F910F900FBE9F
S11301400F901F9018951F920F920FB60F921124C3
S11301500BB60F922F938F939F93EF93FF938091FE
S113016078002091790090E0922B90933B03809348
S11301703A03EAE7F0E0808180648083FF91EF91A5
S11301809F918F912F910F900BBE0F900FBE0F90E8
S11301901F90189584B1876084B90895CF93DF9335
S11301A0CDB7DEB72B970FB6F894DEBF0FBECDBF29
S11301B0AED281110EC021D260E080E016D280E080
S11301C092E02DD261E080E010D28FE092E027D25D
S11301D00EC013D215D260E085E007D287E092E02A
S11301E01ED261E082E001D283E192E018D22FEFC7
S11301F087EA91E6215080409040E1F700C000007A
S11302008BE790E09A8389838B81807E84608B83E3
S11302108FEF8C838D8340E460EE8FE05ED2CE015D
S11302200196B5D2882371F0E8D160E080E0DDD199
S113023080E292E0F4D161E084E0D7D180E392E0FF
S1130240EED10DC0DAD160E080E0CFD18BE392E053
S1130250E6D161E080E0C9D187E492E0E0D12FEFFC
S113026083ED90E3215080409040E1F700C000000E
S11302708AD28823F1F0C1D160E080E0B6D189E56B
S113028092E0CDD12FEF83ED90E321508040904058
S1130290E1F700C00000B1D160E080E0A6D18AE6B9
S11302A092E0BDD161E080E0A0D189E792E0B7D1CE
S11302B00DC0A3D160E080E098D18BE392E0AFD190
S11302C060E084E092D187E892E0A9D12B960FB642
S11302D0F894DEBF0FBECDBFDF91CF91089540E00B
S11302E060EE8FE0FAC1089585B5856085BD16BCC2
S11302F0EEE6F0E080818160808310923C030895F3
S1130300E0E8F0E0808182688083E1E8F0E08081C9
S11303108B61808387E893E19093870080938600C4
S11303208AEF90E0909389008093880080E4809322
S11303307C00EAE7F0E080818F68808380818064BC
S113034080830895CF93DF93CDB7DEB7A1970FB61F
S1130350F894DEBF0FBECDBF81EA91E09A83898312
S11303608B81807E84608B831C821D8289EC90E06B
S11303709D878C878E85807E84608E871F86188AF1
S113038081E293E0988F8F8B898D807E8460898F42
S11303901A8E1B8E78948CE051D1FCDEFFDE9FDF39
S11303A0A3DFAEDF6C9A26982798E1E0F1E0808124
S11303B08F7B8083249880818F7E8083259A1DD1B2
S11303C000E011E0DD24DA946894CC24C4F80F2E04
S11303D0F6E09F2EF02DAA24A3946894882481F833
S11303E06894BB24B2F80F2EF8E8EF2EF12CF02D10
S11303F0F801808184FF35C060913A0370913B031A
S113040080E090E0C8D220E03EEC47EC58E451D3C1
S113041020E030E04AE753E429D28CD2F70171831B
S11304206083749AEDD081E992E0F9D0DA8E8091FC
S11304303A0390913B0396958795969587958B8F74
S1130440CE014796A4D1F70180819181833C9140EC
S113045020F48FE992E0E3D0CBCF80EB92E0DFD0C1
S1130460C7CF1E9B25C080913C03843208F4C0CFC3
S113047086B5833C08F4BCCF8EB18C258EB96499C3
S11304800AC0BC82AD82CE01019681D1B9D081EC83
S113049092E0C5D009C0BC821D82CE01019677D1FD
S11304A0AFD082ED92E0BBD016BC10923C03A0CF3B
S11304B01F9B25C080913C03843208F499CF86B5F4
S11304C0833C08F495CF8EB18C258EB964990AC00B
S11304D08C82AD82CE0101965AD192D083EE92E005
S11304E09ED009C08C821D82CE01019650D188D045
S11304F084EF92E094D016BC10923C0379CFF801BB
S1130500808186FF25C080913C03843208F470CF3B
S113051086B5833C08F46CCF8EB18C258EB9649972
S11305200AC09C82AD82CE01019631D169D085E0AA
S113053093E075D009C09C821D82CE01019627D11B
S11305405FD087E193E06BD016BC10923C0350CF90
S11305501C9B0BC0749ADF86188ACE010C9617D1A7
S11305604FD088E293E05BD043CF1C9941CFCE01BA
S11305700C960DD174981F86188A3ACF129A00C02F
S113058012980895CF93C82F662311F0109A01C0D2
S113059010980B9A0C9A0D9A0E9A1698159814980E
S11305A01398CC230CF4169AC6FD159AC5FD149A1B
S11305B0C4FD139AE3DF1698159814981398C3FD95
S11305C0169AC2FD159AC1FD149AC0FD139AD6DF7E
S11305D0139A149A159A169ACF910895E0EAFFE0B7
S11305E03197F1F760E0CECF0895611103C08058D0
S11305F0F5CF08958054F2CF089581E0EFCF0895A8
S113060082E0ECCF0895E0EAFFE03197F1F78A3019
S113061019F480ECE3CF089561E0B4CF0895CF934B
S1130620DF93EC012196FC018081882321F0EBDF2C
S113063089918111FCCFDF91CF910895CF93C82F79
S1130640089A0A9A0B9A0C9A0D9A0E9AE0E0FAEF1D
S11306503197F1F7149A139A91DFE0E0FEE43197B1
S1130660F1F78CDFE0E0F1E03197F1F787DFE0E0CC
S1130670F1E03197F1F7139881DFE0E0F1E0319791
S1130680F1F788E2ABDF88E0A9DFB7DF86E0A6DF19
S11306908C2FA4DFCF9108958EBD0DB407FEFDCF3E
S11306A08EB50895CF93DF93D82FC62F289882E074
S11306B0F3DF8D2FF1DF8C2FEFDF289ADF91CF91BD
S11306C00895CF93C82F289883E0E6DF8C2FE4DFCA
S11306D08FEFE2DF289ACF9108951F93CF93DF9392
S11306E0182FD62FC42F289885E0D6DF812FD4DF8A
S11306F08D2FD2DF8C2FD0DF289ADF91CF911F91DD
S113070008952898C9DF8FEFC7DF289A0895289A9B
S1130710209A29982A982B98219A229A23985098BB
S1130720589A81E58CBD1DBC289880ECB5DF289AC9
S11307308FE39CE90197F1F700C00000289882E05C
S1130740ABDF88E2A9DF82E0A7DF80E9A5DF87E0ED
S1130750A3DF83E0A1DF289A8AE2B3DF873089F43C
S113076060E08CE09FDF60E08DE09CDF60E680E687
S113077099DF60E680E796DF60E08FE093DF81E059
S1130780089580E0089589B1809581700895DF927D
S1130790EF92FF920F931F93CF93DF931F92CDB7E6
S11307A0DEB78C0180EAADDF8983898182FF0AC0CC
S11307B0898184FF09C0898186FD4DC06894DD2448
S11307C0D2F805C0D12C03C06894DD24D1F8289850
S11307D08D2D806461DFF80120813181C9019695F6
S11307E08795969587959695879556DFF80180812C
S11307F08295880F807E50DF80E04EDF80E04CDF02
S1130800F8018281E82EE694FE2DFF70EF2E80FF22
S113081004C08F2F806440DF0EC08F2F3DDFEE2099
S113082051F00D5F1F4FF12CF80181918F0134DFDE
S1130830F394FE14C8F3289AF5E0FA95F1F7000052
S11308402898D11002C0DD24D3948D2D806824DF34
S1130850289A8D2D01C080E00F90DF91CF911F91D8
S11308600F91FF90EF90DF9008955058BB27AA276F
S11308700ED0E5C0D6D030F0DBD020F031F49F3F6D
S113088011F41EF4CBC00EF4E095E7FBC1C0E92FD0
S1130890E7D080F3BA17620773078407950718F047
S11308A071F49EF5FFC00EF4E0950B2EBA2FA02D27
S11308B00B01B90190010C01CA01A0011124FF2709
S11308C0591B99F0593F50F4503E68F11A16F04004
S11308D0A22F232F342F4427585FF3CF4695379503
S11308E02795A795F0405395C9F77EF41F16BA0BC8
S11308F0620B730B840BBAF09150A1F0FF0FBB1F76
S1130900661F771F881FC2F70EC0BA0F621F731FBE
S1130910841F48F4879577956795B795F7959E3F1B
S113092008F0B3CF9395880F08F09927EE0F9795A9
S11309308795089504D06894B111B5C0089598D0EE
S113094088F09F5790F0B92F9927B751A0F0D1F0B4
S1130950660F771F881F991F1AF0BA95C9F712C03E
S1130960B13081F09FD0B1E008959CC0672F782FFB
S11309708827B85F39F0B93FCCF3869577956795AA
S1130980B395D9F73EF490958095709561957F4F16
S11309908F4F9F4F0895E89409C097FB3EF49095BC
S11309A08095709561957F4F8F4F9F4F9923A9F044
S11309B0F92F96E9BB279395F695879577956795D3
S11309C0B795F111F8CFFAF4BB0F11F460FF1BC017
S11309D06F5F7F4F8F4F9F4F16C0882311F096E9AA
S11309E011C0772321F09EE8872F762F05C0662358
S11309F071F096E8862F70E060E02AF09A95660F11
S1130A00771F881FDAF7880F9695879597F90895C9
S1130A1097F99F6780E870E060E008959FEF80ECAD
S1130A20089500240A941616170618060906089550
S1130A3000240A9412161306140605060895092EB6
S1130A400394000C11F4882352F0BB0F40F4BF2B25
S1130A5011F460FF04C06F5F7F4F8F4F9F4F089565
S1130A6057FD9058440F551F59F05F3F71F047955B
S1130A70880F97FB991F61F09F3F79F08795089540
S1130A80121613061406551FF2CF4695F1DF08C05F
S1130A90161617061806991FF1CF8695710561057C
S1130AA008940895E894BB2766277727CB0197F924
S1130AB008950BD0C4CFB5DF28F0BADF18F0952322
S1130AC009F0A6CFABCF1124EECFCADFA0F3959FD8
S1130AD0D1F3950F50E0551F629FF001729FBB2721
S1130AE0F00DB11D639FAA27F00DB11DAA1F649FCD
S1130AF06627B00DA11D661F829F2227B00DA11D80
S1130B00621F739FB00DA11D621F839FA00D611D05
S1130B10221F749F3327A00D611D231F849F600D26
S1130B20211D822F762F6A2F11249F5750408AF05F
S1130B30E1F088234AF0EE0FFF1FBB1F661F771FEB
S1130B40881F91505040A9F79E3F510570F060CF27
S1130B50AACF5F3FECF3983EDCF3869577956795D3
S1130B60B795F795E7959F5FC1F7FE2B880F911D09
S10F0B709695879597F90895F894FFCFA7
S1130B7C4572726F723A2043414E20427573006E77
S1130B8C6F7420696E697469616C697A656421009B
S1130B9C4D6573736167652077726974656E6E0059
S1130BAC746F2062756666657221004D657373619E
S1130BBC6765206E6F740077726974656E6E20744D
S1130BCC6F20627566666572004D65737361676547
S1130BDC2072656365697665640043414E204275F5
S1130BEC73207465737465640073756363657373E0
S1130BFC66756C6C79210072656365697665642130
S1130C0C00486561646C69676874204F6E2100202C
S1130C1C20205475726E204C6566742120202000AF
S1130C2C2020205475726E2052696768742120202C
S1130C3C004C656674205369676E616C204F6E219D
S1130C4C20004C656674205369676E616C204F6696
S1130C5C6621005269676874205369676E616C2061
S1130C6C4F6E21005269676874205369676E616C1A
S1130C7C204F66660048617A617264205369676E1E
S1130C8C616C204F6E210048617A6172645369670C
S1130C9C6E616C204F666600204272616B65205059
S10D0CAC7265737365642120000073
S9030000FC
