:1000000071C0000086C0000084C0000082C00000F3
:1000100080C000007EC000007CC000007AC00000EC
:1000200078C0000076C0000074C0000072C00000FC
:1000300070C000006EC000006CC000006AC000000C
:1000400068C0000066C0000064C0000062C000001C
:1000500060C000005EC000005CC000005AC000002C
:1000600058C0000056C0000054C0000052C000003C
:1000700050C000004EC000004CC000004AC000004C
:1000800048C0000046C0000044C0000042C000005C
:1000900040C000003EC000003CC000003AC000006C
:1000A00038C0000036C0000034C0000032C000007C
:1000B00030C000002EC000002CC000002AC000008C
:1000C00028C0000026C0000024C0000022C000009C
:1000D00020C000001EC000001CC000001AC00000AC
:1000E00018C0000011241FBECFEFD1E2DEBFCDBF8C
:1000F00000E00CBF12E0A0E0B2E0E6E8F2E000E0D1
:100100000BBF02C007900D92AA31B107D9F792D068
:10011000B8C076CF129A00C012980895CF93C82F16
:10012000662311F0109A01C010980B9A0C9A0D9A40
:100130000E9A1698159814981398CC230CF4169AC6
:10014000C6FD159AC5FD149AC4FD139AE3DF1698EF
:10015000159814981398C3FD169AC2FD159AC1FDFF
:10016000149AC0FD139AD6DF139A149A159A169A08
:10017000CF910895E0EAFFE03197F1F760E0CECF4C
:10018000089581E0F7CF089582E0F4CF0895E0EA82
:10019000FFE03197F1F78A3019F480ECEBCF089546
:1001A00061E0BCCF0895CF93DF93EC012196FC0171
:1001B0008081882321F0EBDF89918111FCCFDF91D1
:1001C000CF910895CF93C82F089A0A9A0B9A0C9A48
:1001D0000D9A0E9AE0E0FAEF3197F1F7149A139A1C
:1001E00099DFE0E0FEE43197F1F794DFE0E0F1E041
:1001F0003197F1F78FDFE0E0F1E03197F1F71398F5
:1002000089DFE0E0F1E03197F1F788E2B3DF88E0E1
:10021000B1DFB7DF86E0AEDF8C2FACDFCF91089582
:10022000E1E8F0E080818460808310928500109284
:10023000840008958CE0C6DFF3DF6C9A2698A1DF76
:10024000C4E8D0E010E11E9B16C0888199818131FD
:100250009349C8F38EB181278EB9649905C094DFA4
:1002600080E092E0A0DF04C08FDF89E092E09BDFB6
:1002700019821882E8CF749887DF82E192E093DFD9
:06028000E2CFF894FFCF6D
:100286004C4544204F6E2120004C4544204F666665
:0A0296002100436C6F7365642100C2
:00000001FF
