:100000000C9434000C9451000C9451000C94510049
:100010000C9451000C9451000C9451000C9451001C
:100020000C9451000C9451000C9451000C9451000C
:100030000C9451000C9451000C9451000C945100FC
:100040000C9451000C9451000C9451000C945100EC
:100050000C9451000C9451000C9451000C945100DC
:100060000C9451000C94510011241FBECFEFD8E026
:10007000DEBFCDBF11E0A0E0B1E0EEEAF0E102C0EA
:1000800005900D92A239B107D9F721E0A2E9B1E0BC
:1000900001C01D92AB39B207E1F70E949B010C949D
:1000A00055080C940000249A8CB580648CBD08958A
:1000B000CF93DF93CDB7DEB72B970FB6F894DEBFA3
:1000C0000FBECDBF0E94DD04811113C00E94DD036D
:1000D00060E080E00E94C70380E091E00E94360467
:1000E00061E080E00E94C7038FE091E00E94360447
:1000F00012C00E94DD0360E087E00E94C70387E032
:1001000091E00E94360461E084E00E94C70383E12D
:1001100091E00E9436042FEF87EA91E6215080405B
:100120009040E1F700C0000083E291E09A83898368
:100130008B81807E84608B838FEF8C838D8340E402
:1001400060EE8FE00E94BD04CE0101960E94A405DE
:10015000882399F00E94DD0360E082E00E94C703DB
:1001600080E291E00E94360461E085E00E94C703CE
:1001700080E391E00E94360412C00E94DD0360E03B
:1001800085E00E94C7038BE391E00E94360461E0A2
:1001900082E00E94C70387E491E00E9436042FEFBB
:1001A00083ED90E3215080409040E1F700C00000D3
:1001B0000E9426058823A1F00E94DD0360E082E012
:1001C0000E94C70389E591E00E9436042FEF83ED7A
:1001D00090E3215080409040E1F700C0000012C041
:1001E0000E94DD0360E084E00E94C7038BE391E09E
:1001F0000E94360460E086E00E94C7038AE691E030
:100200000E9436042B960FB6F894DEBF0FBECDBF0A
:10021000DF91CF91089540E060EE8FE00E94BD0431
:100220000E94DD030E94F40384E791E00E943604FB
:100230002FEF83ED90E3215080409040E1F700C024
:1002400000000895DF92EF92FF920F931F93CF93D8
:10025000DF93CDB7DEB763970FB6F894DEBF0FBE5E
:10026000CDBF7C01162F40E1BE016F5F7F4FFC01C7
:10027000808191810E942008612F80E00E94C70345
:10028000CE0101960E943604612F85E00E94C703CB
:10029000F701828186958F7049F120E030E0D12C02
:1002A000F901EE0FFF1F81E090E08C0F9D1FE80F1A
:1002B000F91F03811481F701E20FF31F838140E1ED
:1002C000B80190E00E942008C8010E94360487E827
:1002D00091E00E943604D3942D2D30E0F701828105
:1002E00086958F7090E028173907D4F263960FB681
:1002F000F894DEBF0FBECDBFDF91CF911F910F915C
:10030000FF90EF90DF900895E0E8F0E08081826850
:100310008083E1E8F0E080818B61808387E893E16E
:1003200090938700809386008AEF90E090938900F5
:10033000809388000895CF93DF93CDB7DEB72F97D2
:100340000FB6F894DEBF0FBECDBF78948CE00E944C
:10035000460480E00E94E1030E9453000E9458007E
:100360000E940B010E948401209A549A559A539A34
:10037000209A219A0E94DD0360E080E00E94C7037A
:1003800089E891E00E94360460E085E00E94C7039E
:100390008CE891E00E943604DD24DA940F2EF8E810
:1003A000EF2EF12CF02D0E9426058823E1F3CE01DB
:1003B00001960E942D058823B1F389819A818835A1
:1003C000924049F5DC82289A0D8110E0B801882717
:1003D00077FD8095982F0E9431072EEB36EF4AED7E
:1003E0005FE30E94BD0720E030E04AE753E40E944B
:1003F0009A060E94FE06F701718360834AE0BE01FF
:10040000645F7F4FC8010E94200861E070E0CE0168
:1004100001960E94220189819A81813AF1E09F0729
:1004200009F043C08C81843009F05CC09D8191301B
:1004300009F054C063E070E0CE0101960E942201F1
:100440005C9AB1CF63E070E0CE0101960E94220178
:100450005C98A9CF8D81813009F047C063E070E0DE
:10046000CE0101960E9422015D9A9DCF63E070E06B
:10047000CE0101960E9422015D9895CF8D81813039
:10048000E1F563E070E0CE0101960E9422018BB19C
:1004900080638BB988CF63E070E0CE0101960E9443
:1004A00022018BB18F7C8BB97ECF893C910509F0FD
:1004B0007ACF8C818F3F41F462E070E0CE010196EB
:1004C0000E9422015B9A6FCF81116DCF62E070E0D4
:1004D000CE0101960E9422015B9865CF9D8191110A
:1004E00008C0B0CF823029F4B5CF8D8181115BCFA8
:1004F000BDCF863009F057CFC1CF8D81811153CF49
:10050000CACF1092B90088E48093B800089594EAA5
:100510009093BC00ECEBF0E090819923ECF7909184
:10052000B900987F983011F09031A1F48093BB000E
:1005300084E88093BC00ECEBF0E080818823ECF74A
:100540009091B900987F983139F081E0903429F486
:1005500080E0089581E0089580E0089584E9809323
:10056000BC00ECEBF0E0808184FDFDCF089580932A
:10057000BB0084E88093BC00ECEBF0E08081882332
:10058000ECF79091B900987F81E0983209F480E00F
:100590000895CF93882331F08091920181608093F8
:1005A000920105C0809192018E7F8093920180918B
:1005B00092018260809392016091920180E00E949A
:1005C000440662E080E00E94910600C064E080E0A2
:1005D0000E942D06C82F62E080E00E94950600C0B0
:1005E00062E080E00E94910600C064E080E00E942A
:1005F0002D06C295C07F8F70C82B62E080E00E94FC
:1006000095068C2FCF91089580E00E94C90288231F
:10061000DCF388E090E00197F1F780E00E94C902E6
:10062000089562E080E00E94910600C062E080E0F0
:100630000E9495060895CF93C82F662331F08091CC
:10064000920181608093920105C0809192018E7F1A
:1006500080939201809192018D7F809392016091AD
:10066000920180E00E944406809192018F778093EE
:100670009201809192018F7B8093920180919201EF
:100680008F7D80939201809192018F7E8093920161
:10069000CC232CF480919201806880939201C6FF54
:1006A00005C080919201806480939201C5FF05C0CE
:1006B00080919201806280939201C4FF05C0809175
:1006C00092018061809392016091920180E00E948A
:1006D00044060E941103809192018F7780939201CA
:1006E000809192018F7B80939201809192018F7D06
:1006F00080939201809192018F7E80939201C3FF3B
:1007000005C080919201806880939201C2FF05C06C
:1007100080919201806480939201C1FF05C0809115
:100720009201806280939201C0FF05C08091920186
:100730008061809392016091920180E00E94440662
:100740000E941103809192018061809392018091B7
:1007500092018062809392018091920180648093E3
:100760009201809192018068809392016091920140
:1007700080E00E944406CF910895CF93C82F0E9435
:10078000040360E08C2F0E941B03CF910895611138
:1007900004C080580E94BD030895613021F4805444
:1007A0000E94BD030895623021F48C560E94BD035F
:1007B00008958C520E94BD03089581E00E94BD03FC
:1007C0000895882331F080919201877F8093920170
:1007D00005C080919201886080939201609192019E
:1007E00080E00E944406089582E00E94BD030895BF
:1007F000CF93C82F0E940403CA30A9F4843150F06B
:1008000090EC980F943140F09CEE980F9C3230F4AD
:1008100084E505C080E403C084E101C080E0805825
:100820000E94BD0321C0843129F460E080EC0E9465
:100830001B0314C0843529F460E084E90E941B0383
:100840000DC0883229F460E084ED0E941B0306C0CD
:10085000883621F460E080E80E941B030E940403B4
:1008600061E08C2F0E941B03CF910895CF93DF93FB
:10087000EC012196FC018081882329F00E94F80375
:1008800089918111FBCFDF91CF910895CF93C82F2C
:100890000E941C06109292016091920180E00E94D9
:1008A0004406E0E0FAEF3197F1F78091920180621F
:1008B0008093920180919201806180939201609176
:1008C000920180E00E9444060E941103E0E0FEE4F1
:1008D0003197F1F70E941103E0E0F1E03197F1F771
:1008E0000E941103E0E0F1E03197F1F7809192016D
:1008F0008F7E809392016091920180E00E94440675
:100900000E941103E0E0F1E03197F1F788E20E94E4
:10091000BD0388E00E94BD030E94DD0386E00E94C3
:10092000BD038C2F0E94BD03CF9108958EBD0DB4E1
:1009300007FEFDCF8EB50895CF93DF93D82FC62F36
:100940002A9882E00E9496048D2F0E9496048C2F94
:100950000E9496042A9ADF91CF910895CF93C82FD1
:100960002A9883E00E9496048C2F0E9496048FEFB1
:100970000E9496042A9ACF9108951F93CF93DF93F4
:10098000182FD62FC42F2A9885E00E949604812F15
:100990000E9496048D2F0E9496048C2F0E9496042C
:1009A0002A9ADF91CF911F9108952A980E94960468
:1009B0008FEF0E9496042A9A08952A9A229A2D98D7
:1009C0002B982C98259A239A249852985A9A81E524
:1009D0008CBD1DBC2A9880EC0E9496042A9A8FE355
:1009E0009CE90197F1F700C000002A9882E00E947C
:1009F000960488E20E94960482E00E94960480E9B0
:100A00000E94960487E00E94960483E00E94960468
:100A10002A9A8AE20E94AE048730B1F460E08CE04A
:100A20000E949C0460E08DE00E949C0460E680E6E9
:100A30000E949C0460E680E70E949C0460E08FE0D6
:100A40000E949C0481E0089580E0089589B182FBB2
:100A5000882780F991E089270895EF92FF920F93FC
:100A60001F93CF93DF931F92CDB7DEB77C0180EB4E
:100A70000E94D5048983898186FD06C089818823E7
:100A80000CF059C084E901C080E92A980E949604BC
:100A90008FEF0E94960498E0899F80011124F7014E
:100AA000118300838FEF0E9496048295869587704C
:100AB000082BF701118300838FEF0E9496048FEFBC
:100AC0000E9496048FEF0E9496048F70282F220FA9
:100AD000F7019281917E922B9283298123FB222719
:100AE00020F920FB90F99283882391F087010D5F14
:100AF0001F4FF4E0EF0EF11C8150E80EF11C8FEF58
:100B00000E949604F80181938F01EE15FF05B9F755
:100B10002A9A898186FF06C040E061E08CE20E944B
:100B2000BD0405C040E062E08CE20E94BD04898102
:100B300087708F5F01C080E00F90DF91CF911F9190
:100B40000F91FF90EF900895DF92EF92FF920F9335
:100B50001F93CF93DF931F92CDB7DEB78C0180EA4E
:100B60000E94D5048983898182FF0AC0898184FF1C
:100B700009C0898186FD56C06894DD24D2F805C07D
:100B8000D12C03C06894DD24D1F82A988D2D80647F
:100B90000E949604F80120813181C90196958795BC
:100BA00096958795969587950E949604F801808181
:100BB0008295880F807E0E94960480E00E949604B1
:100BC00080E00E949604F8018281E82EE694FE2DD2
:100BD000FF70EF2E80FF05C08F2F80640E94960467
:100BE00010C08F2F0E949604EE2059F00D5F1F4F0A
:100BF000F12CF80181918F010E949604F394FE1468
:100C0000C0F32A9AF5E0FA95F1F700002A98D1107E
:100C100002C0DD24D3948D2D80680E9496042A9A08
:100C20008D2D01C080E00F90DF91CF911F910F912A
:100C3000FF90EF90DF9008950E94810285E38A95EE
:100C4000F1F7000080E090E0FC01ED56FE4F1082CD
:100C5000019688309105C1F70895883088F468308E
:100C600088F4E82FF0E0ED56FE4F8081992787FD4C
:100C7000909502C0959587956A95E2F781700895E1
:100C80008FEF08958FEF0895CF93C62F883080F4AB
:100C9000E82FF0E0ED56FE4F6083815C880F0E94E4
:100CA00087028C2F0E94B7020E94AE0280E001C032
:100CB0008FEFCF910895CF93883070F5683070F53D
:100CC000282F30E0F901ED56FE4FC081442351F04A
:100CD000E1E0F0E0AF0102C0440F551F6A95E2F772
:100CE000C42B0BC041E050E0FA0102C0EE0FFF1F21
:100CF0006A95E2F7BF016095C623F901ED56FE4FF4
:100D0000C083815C880F0E9487028C2F0E94B702EB
:100D10000E94AE0280E003C08FEF01C08FEFCF9141
:100D2000089541E00E945B06089540E00E945B0642
:100D300008955058BB27AA270ED0E5C0D6D030F072
:100D4000DBD020F031F49F3F11F41EF4CBC00EF441
:100D5000E095E7FBC1C0E92FE7D080F3BA1762073F
:100D600073078407950718F071F49EF5FFC00EF421
:100D7000E0950B2EBA2FA02D0B01B90190010C01AB
:100D8000CA01A0011124FF27591B99F0593F50F4C3
:100D9000503E68F11A16F040A22F232F342F44271B
:100DA000585FF3CF469537952795A795F040539513
:100DB000C9F77EF41F16BA0B620B730B840BBAF0E3
:100DC0009150A1F0FF0FBB1F661F771F881FC2F74E
:100DD0000EC0BA0F621F731F841F48F48795779562
:100DE0006795B795F7959E3F08F0B3CF9395880F19
:100DF00008F09927EE0F97958795089504D0689489
:100E0000B111B5C0089598D088F09F5790F0B92FD0
:100E10009927B751A0F0D1F0660F771F881F991F4F
:100E20001AF0BA95C9F712C0B13081F09FD0B1E085
:100E300008959CC0672F782F8827B85F39F0B93F95
:100E4000CCF3869577956795B395D9F73EF4909551
:100E50008095709561957F4F8F4F9F4F0895E894CF
:100E600009C097FB3EF490958095709561957F4FF2
:100E70008F4F9F4F9923A9F0F92F96E9BB279395A0
:100E8000F695879577956795B795F111F8CFFAF4B0
:100E9000BB0F11F460FF1BC06F5F7F4F8F4F9F4FE1
:100EA00016C0882311F096E911C0772321F09EE83F
:100EB000872F762F05C0662371F096E8862F70E0A5
:100EC00060E02AF09A95660F771F881FDAF7880F7F
:100ED0009695879597F9089597F99F6780E870E050
:100EE00060E008959FEF80EC089500240A941616A0
:100EF000170618060906089500240A941216130608
:100F0000140605060895092E0394000C11F4882395
:100F100052F0BB0F40F4BF2B11F460FF04C06F5FB1
:100F20007F4F8F4F9F4F089557FD9058440F551F87
:100F300059F05F3F71F04795880F97FB991F61F05B
:100F40009F3F79F087950895121613061406551FD2
:100F5000F2CF4695F1DF08C0161617061806991F3E
:100F6000F1CF86957105610508940895E894BB2733
:100F700066277727CB0197F908950BD0C4CFB5DF4B
:100F800028F0BADF18F0952309F0A6CFABCF1124D3
:100F9000EECFCADFA0F3959FD1F3950F50E0551F18
:100FA000629FF001729FBB27F00DB11D639FAA27BE
:100FB000F00DB11DAA1F649F6627B00DA11D661F0D
:100FC000829F2227B00DA11D621F739FB00DA11D2E
:100FD000621F839FA00D611D221F749F3327A00DE8
:100FE000611D231F849F600D211D822F762F6A2F84
:100FF00011249F5750408AF0E1F088234AF0EE0F09
:10100000FF1FBB1F661F771F881F91505040A9F715
:101010009E3F510570F060CFAACF5F3FECF3983E42
:10102000DCF3869577956795B795F795E7959F5F7C
:10103000C1F7FE2B880F911D9695879597F9089516
:10104000BB274A3031F4992322F4BDE29095819573
:101050009F4F0C942C08BB27FB015527AA27880F0C
:10106000991FAA1FA41710F0A41B83955051B9F71C
:10107000A05DAA3308F0A95DA193009779F7B1119B
:10108000B1931192CB010C944508DC01FC01672F50
:1010900071917723E1F7329704C07C916D9370834F
:0E10A0006291AE17BF07C8F30895F894FFCF12
:1010AE004572726F723A2043414E20427573006E44
:1010BE006F7420696E697469616C697A6564210068
:1010CE004D6573736167652077726974656E6E0026
:1010DE00746F2062756666657221004D657373616B
:1010EE006765206E6F74007772697474656E207414
:1010FE006F20627566666572004D65737361676514
:10110E0020726563656976656400726563656976EC
:10111E006564210043414E20427573204E6F726DFF
:10112E00616C204D6F646520004944004441544178
:02113E000000AF
:00000001FF
