:100000000C9434000C9451000C9451000C94510049
:100010000C9451000C9451000C9451000C9451001C
:100020000C9451000C9451000C9451000C9451000C
:100030000C9451000C9451000C9451000C945100FC
:100040000C9451000C9451000C9468000C9488009E
:100050000C9451000C9451000C9451000C945100DC
:100060000C9451000C94510011241FBECFEFD8E026
:10007000DEBFCDBF11E0A0E0B1E0E6EDF1E002C0EF
:1000800005900D92A031B107D9F722E0A0E1B1E0CF
:1000900001C01D92A431B207E1F70E94D6000C9472
:1000A000E9000C9400009093C5008093C40088E997
:1000B0008093C1008EE08093C2001092C000109225
:1000C0009201109293011092100110921101089563
:1000D0001F920F920FB60F9211248F939F93EF935D
:1000E000FF938091C600E0919301EF5FEF77E0937B
:1000F000930190919201F0E0EC56FE4F8083FF91C6
:10010000EF919F918F910F900FBE0F901F901895B8
:100110001F920F920FB60F9211248F939F93EF931C
:10012000FF939091110180911001981769F0E0916F
:100130001001EF5FEF77E0931001F0E0EE5EFE4F0D
:1001400080818093C60005C0E1ECF0E080818F7D66
:100150008083FF91EF919F918F910F900FBE0F9031
:100160001F901895209111012F5F2F77909110010A
:100170002917E1F3E22FF0E0EE5EFE4F808320933B
:100180001101E1ECF0E08081806280830895CF93DB
:10019000DF93EC018881882331F021960E94B20020
:1001A00089918111FBCFDF91CF91089587E690E08F
:1001B0000E945300789480E091E00E94C7002FEFE6
:1001C00087EA91E6215080409040E1F700C00000AE
:0601D000F2CFF894FFCF0E
:1001D60048656C6C6F20776F726C6421210A0D0084
:00000001FF
