:1000000071C0000086C0000084C0000082C00000F3
:1000100080C000007EC000007CC000007AC00000EC
:1000200078C0000076C0000074C0000072C00000FC
:1000300070C000006EC000006CC000006AC000000C
:1000400068C0000066C0000064C0000062C000001C
:1000500060C000005EC000005CC000005AC000002C
:1000600058C0000056C0000054C0000052C000003C
:1000700050C000004EC000004CC000004AC000004C
:1000800048C0000046C0000044C0000042C000005C
:1000900040C000003EC000003CC000003AC000006C
:1000A00038C0000036C0000034C0000032C000007C
:1000B00030C000002EC000002CC000002AC000008C
:1000C00028C0000026C0000024C0000022C000009C
:1000D00020C000001EC000001CC000001AC00000AC
:1000E00018C0000011241FBECFEFD1E2DEBFCDBF8C
:1000F00000E00CBF12E0A0E0B2E0E0ECF4E000E0D1
:100100000BBF02C007900D92A232B107D9F774D08D
:10011000D5C176CF269A08952E9A80E58A95F1F773
:100120002E9808951F9917C081E090E0A0E0B0E0FC
:100130001F990BC00196A11DB11D803C27E29207BB
:1001400029E0A207B105A1F748C0803C9742A94029
:10015000B10509F445C01092800082E080938100CF
:1001600010928500109284001F9B24C0809184000F
:100170009091850081369A4EE8F481E090E0A0E00D
:10018000B0E0E4E8F0E01F9B10C02081318121360F
:100190003A4E58F40196A11DB11D803C27E292070A
:1001A00029E0A207B10579F71EC0803C9742A9401B
:1001B000B105E1F08091840090918500A0E0B0E06D
:1001C0001092810081362AEE9207A105B10588F4CC
:1001D000B695A79597958795089584EF9FEF089515
:1001E00084EF9FEF089583EF9FEF089583EF9FEFD4
:1001F000089583EF9FEF0895CF93DF9300D01F9270
:10020000CDB7DEB78DB188638DB984DF8CE0E6D0E1
:1002100080E092E0D4D02FEF83ED90E32150804036
:100220009040E1F700C0000077DF7CDF9C01AFE980
:10023000B6E402D18C01129502950F7001271F7050
:1002400001270B301105A8F4739A2FEF81EE94E08B
:10025000215080409040E1F700C0000073982FEFDC
:1002600081EE94E0215080409040E1F700C0000012
:100270002DC0C8010B970A97A8F4749A2FEF81EE4E
:1002800094E0215080409040E1F700C00000749855
:100290002FEF81EE94E0215080409040E1F700C0C4
:1002A000000014C0759A2FEF81EE94E02150804039
:1002B0009040E1F700C0000075982FEF81EE94E0C8
:1002C000215080409040E1F700C0000069D060E01C
:1002D00080E05ED080E192E072D060E08AE058D0A9
:1002E000093624E0120721F48AE192E068D009C0BF
:1002F0004AE0BE016F5F7F4FC801ADD0CE010196CD
:100300005ED060E08EE044D08EE192E058D08FEF76
:1003100099E628E1815090402040E1F700C00000BC
:1003200083CF129A00C012980895CF93C82F6623E6
:1003300011F0109A01C010980B9A0C9A0D9A0E9A0F
:100340001698159814981398CC230CF4169AC6FD99
:10035000159AC5FD149AC4FD139AE3DF16981598F3
:1003600014981398C3FD169AC2FD159AC1FD149AEC
:10037000C0FD139AD6DF139A149A159A169ACF9144
:100380000895E0EAFFE03197F1F760E0CECF0895FD
:10039000611103C08058F5CF08958054F2CF0895BD
:1003A00081E0EFCF0895E0EAFFE03197F1F78A307E
:1003B00019F480ECE6CF089561E0B7CF0895CF93AC
:1003C000DF93EC012196FC018081882321F0EBDF93
:1003D00089918111FCCFDF91CF910895CF93C82FE0
:1003E000089A0A9A0B9A0C9A0D9A0E9AE0E0FAEF84
:1003F0003197F1F7149A139A94DFE0E0FEE4319715
:10040000F1F78FDFE0E0F1E03197F1F78ADFE0E02C
:10041000F1E03197F1F7139884DFE0E0F1E03197F4
:10042000F1F788E2AEDF88E0ACDFBADF86E0A9DF73
:100430008C2FA7DFCF910895A29FB001B39FC00179
:10044000A39F700D811D1124911DB29F700D811D00
:100450001124911D0895BB274A3031F4992322F4C9
:10046000BDE2909581959F4F01C0BB27FB015527A9
:10047000AA27880F991FAA1FA41710F0A41B839501
:100480005051B9F7A05DAA3308F0A95DA193009778
:1004900079F7B111B1931192CB0100C0DC01FC01DD
:1004A000672F71917723E1F7329704C07C916D93A8
:1004B00070836291AE17BF07C8F30895F894FFCF19
:1004C00020484320535230342053656E736F7200BE
:1004D00044697374616E63653A006D617800636DA1
:0204E00000001A
:00000001FF
