:100000000C9434000C943E000C943E000C943E0082
:100010000C943E000C943E000C943E000C943E0068
:100020000C943E000C943E000C943E000C943E0058
:100030000C943E000C943E000C943E000C943E0048
:100040000C943E000C943E000C943E000C943E0038
:100050000C943E000C943E000C943E000C943E0028
:100060000C943E000C943E0011241FBECFEFD8E04C
:10007000DEBFCDBF0E9447000C9461000C940000CD
:10008000569A089583E884BD81E085BD08950E9455
:1000900040000E94420080E008C087BDEFE3FCE919
:1000A0003197F1F700C000008F5F8F3FB1F787BD38
:1000B000EFE3FCE93197F1F700C000008150B9F798
:0600C000F4CFF894FFCF1D
:00000001FF
