:100000000C9434000C9451000C9451000C94510049
:100010000C9468020C9486020C9451000C945100CC
:100020000C9451000C9451000C9451000C9451000C
:100030000C9451000C9451000C9451000C945100FC
:100040000C9451000C9451000C9451000C945100EC
:100050000C9451000C9451000C9451000C945100DC
:100060000C9451000C94510011241FBECFEFD8E026
:10007000DEBFCDBF11E0A0E0B1E0E6E1F7E002C0F5
:1000800005900D92A433B107D9F721E0A4E3B1E0C4
:1000900001C01D92A134B207E1F70E94A5020C94A1
:1000A00089030C9400001092B90088E48093B80092
:1000B000089594EA9093BC00ECEBF0E090819923D2
:1000C000ECF79091B900987F983011F09031A1F43D
:1000D0008093BB0084E88093BC00ECEBF0E080816F
:1000E0008823ECF79091B900987F983139F081E03E
:1000F000903429F480E0089581E0089580E0089527
:1001000084E98093BC00ECEBF0E0808184FDFDCFBE
:1001100008958093BB0084E88093BC00ECEBF0E092
:1001200080818823ECF79091B900987F81E0983224
:1001300009F480E00895CF93882331F08091340151
:1001400081608093340105C0809134018E7F80935B
:1001500034018091340182608093340160913401D4
:1001600080E00E94340362E080E00E94810300C0CE
:1001700064E080E00E941D03C82F62E080E00E94DE
:10018000850300C062E080E00E94810300C064E05B
:1001900080E00E941D03C295C07F8F70C82B62E073
:1001A00080E00E9485038C2FCF91089580E00E940B
:1001B0009B008823DCF388E090E00197F1F780E072
:1001C0000E949B00089562E080E00E94810300C0CD
:1001D00062E080E00E9485030895CF93C82F6623D4
:1001E00031F08091340181608093340105C08091A9
:1001F00034018E7F80933401809134018D7F809310
:1002000034016091340180E00E9434038091340114
:100210008F7780933401809134018F7B80933401F8
:10022000809134018F7D80933401809134018F7EE1
:1002300080933401CC232CF4809134018068809326
:100240003401C6FF05C0809134018064809334017D
:10025000C5FF05C080913401806280933401C4FFE2
:1002600005C0809134018061809334016091340134
:1002700080E00E9434030E94E300809134018F7774
:1002800080933401809134018F7B8093340180917D
:1002900034018F7D80933401809134018F7E80936F
:1002A0003401C3FF05C0809134018068809334011C
:1002B000C2FF05C080913401806480933401C1FF86
:1002C00005C080913401806280933401C0FF05C075
:1002D000809134018061809334016091340180E029
:1002E0000E9434030E94E300809134018061809376
:1002F0003401809134018062809334018091340113
:10030000806480933401809134018068809334014B
:100310006091340180E00E943403CF910895CF931F
:10032000C82F0E94D60060E08C2F0E94ED00CF9174
:100330000895611104C080580E948F0108956130B2
:1003400021F480540E948F010895623021F48C566C
:100350000E948F0108958C520E948F01089581E0C0
:100360000E948F010895882331F080913401877FA6
:100370008093340105C080913401886080933401FA
:100380006091340180E00E943403089582E00E946D
:100390008F010895CF93C82F0E94D600CA30A9F4C8
:1003A000843150F090EC980F943140F09CEE980F0F
:1003B0009C3230F484E505C080E403C084E101C0D0
:1003C00080E080580E948F0121C0843129F460E0D0
:1003D00080EC0E94ED0014C0843529F460E084E9CB
:1003E0000E94ED000DC0883229F460E084ED0E9487
:1003F000ED0006C0883621F460E080E80E94ED0040
:100400000E94D60061E08C2F0E94ED00CF910895EC
:10041000CF93DF93EC012196FC018081882329F0A2
:100420000E94CA0189918111FBCFDF91CF9108957C
:10043000CF93C82F0E940C031092340160913401B5
:1004400080E00E943403E0E0FAEF3197F1F7809109
:100450003401806280933401809134018061809303
:1004600034016091340180E00E9434030E94E30073
:10047000E0E0FEE43197F1F70E94E300E0E0F1E014
:100480003197F1F70E94E300E0E0F1E03197F1F7F6
:10049000809134018F7E809334016091340180E03B
:1004A0000E9434030E94E300E0E0F1E03197F1F7AD
:1004B00088E20E948F0188E00E948F010E94AF01B4
:1004C00086E00E948F018C2F0E948F01CF910895AA
:1004D0001F920F920FB60F9211248F939F93309B10
:1004E00008C0289A81E090E090933601809335010E
:1004F00006C086B1289810923601109235019F915E
:100500008F910F900FBE0F901F9018951F920F9212
:100510000FB60F9211248F939F934F9B08C05C9A44
:1005200081E090E0909338018093370107C04F99A4
:1005300005C05C9810923801109237019F918F91FD
:100540000F900FBE0F901F9018958CE00E9418021C
:1005500080E00E94B301549A57985F9AE8E6F0E071
:1005600084E0808380E880936D00209A5098589AA8
:10057000808182608083ECE6F0E08081816080830E
:1005800078940E94AF0180913701909138010197D2
:1005900099F40E94C60160E080E00E94990180E029
:1005A00091E00E94080260E089E00E9499018AE0DF
:1005B00091E00E940802E7CF8091350190913601C9
:1005C000019799F40E94C60160E080E00E949901C1
:1005D00080E091E00E94080260E089E00E949901B9
:1005E00085E191E00E940802CECF80913701909181
:1005F0003801892B41F68091350190913601892B84
:1006000011F60E94C60160E080E00E94990180E23C
:1006100091E00E940802B7CF0E94530085E38A95BB
:10062000F1F7000080E090E0FC01E75CFE4F1082F3
:10063000019688309105C1F70895883088F46830B4
:1006400088F4E82FF0E0E75CFE4F8081992787FD72
:10065000909502C0959587956A95E2F78170089507
:100660008FEF08958FEF0895CF93C62F883080F4D1
:10067000E82FF0E0E75CFE4F6083815C880F0E940A
:1006800059008C2F0E9489000E94800080E001C0E8
:100690008FEFCF910895CF93883070F5683070F563
:1006A000282F30E0F901E75CFE4FC081442351F070
:1006B000E1E0F0E0AF0102C0440F551F6A95E2F798
:1006C000C42B0BC041E050E0FA0102C0EE0FFF1F47
:1006D0006A95E2F7BF016095C623F901E75CFE4F1A
:1006E000C083815C880F0E9459008C2F0E94890072
:1006F0000E94800080E003C08FEF01C08FEFCF9198
:10070000089541E00E944B03089540E00E944B038E
:060710000895F894FFCFEC
:1007160020202020204C454420004434204F6E21C8
:1007260020202020004230204F6E21202020200053
:100736004C45447320423020616E64204434204F7F
:0407460066662100C2
:00000001FF
